:100000000C9436000C9453000C9453000C94530041
:100010000C9453000C9453000C9453000C94530014
:100020000C9453000C9453000C9453000C94530004
:100030000C9453000C9469010C9453000C945300DD
:100040000C9453000C9453000C9453000C945300E4
:100050000C9453000D0A000D0A000D0A000D0A0051
:100060000D0A007766696E69740D0A0011241FBEBF
:10007000CFE5D8E0DEBFCDBF11E0A0E6B0E0E8EA12
:10008000F2E202C005900D92A63DB107D9F713E048
:10009000A6EDB1E001C01D92AD3DB107E1F70E94B0
:1000A000FC070C9452110C9400009C0140E050E0BD
:1000B000CA01B90160587B47814E9F4FF3E0660F3C
:1000C000771F881F991FFA95D1F7E4E0220F331F9D
:1000D000441F551FEA95D1F70E944B0D2150304027
:1000E0008FEF8093F1018091F1018093DC0130BDAD
:1000F00029B986E880BD88E98AB978940895EF9295
:10010000FF920F931F93262F7C0100E010E030E058
:1001100040E050E0CA01B90128E438EE41E050E087
:100120000E94190D6E0D7F1D801F911FB3E0660F99
:10013000771F881F991FBA95D1F7A4E0EE0CFF1C1A
:10014000001F111FAA95D1F7A80197010E946D0DFC
:10015000215030408FEF8093F1018091F101809325
:10016000DC0130BD29B986E880BD88E98AB9789478
:100170001F910F91FF90EF9008958091DC018F3FC8
:1001800011F4E0E01DC0E091DC01FF27E7FDF095F0
:10019000EE50FE4FE0819091DC018091F1019817C3
:1001A00041F48FEF8093F1018091F1018093DC01A4
:1001B00007C08091DC018F5F8093DC018091DC01BE
:1001C0008E2F08955D9BFECF8CB90895FC0104C06D
:1001D0005D9BFECF8CB9319680818823C9F7089545
:1001E00003C05D9BFECF2CB9FC0101962491222314
:1001F000C1F70895EF92FF920F931F93CF93DF9370
:100200007C018B01C0E0D0E007C00E94BD00F70177
:10021000EC0FFD1F80832196C017D107B0F3DF914B
:10022000CF911F910F91FF90EF9008958091DC0185
:100230008F3F11F490E01AC09091DC018091F101A0
:10024000981734F49091F1018091DC019F5F0DC00B
:100250009091DC018091F101891714F091E006C0C2
:100260009091F1018091DC01935D981B892F089595
:1002700002C00E94BD000E9416018823D1F7089594
:100280001F93CF93DF93EC01162F0E941601811765
:10029000E0F3CE01612F70E00E94FA0081E0DF916F
:1002A000CF911F9108951F93CF93DF93EC01162FE9
:1002B0000E941601811738F0CE01612F70E00E9474
:1002C000FA0081E002C0188280E0DF91CF911F9197
:1002D00008951F920F920FB60F9211242F933F9300
:1002E0004F938F939F93EF93FF934CB18091F101C4
:1002F0008091F1012091DC01992787FD909501966D
:10030000332727FD30958217930739F48091DC015C
:100310008F5F8093DC018091DC018091F1018091FD
:10032000F1018F5F8093F101E091F101FF27E7FD7B
:10033000F095EE50FE4F40838091DC018F3F11F429
:100340001092DC01FF91EF919F918F914F913F911E
:100350002F910F900FBE0F901F90189580E090E0A6
:10036000FC01EE50FE4F1082019680389105C1F7D6
:100370000895823061F0833018F48130B9F405C0FB
:10038000833039F0843091F406C029B305C026B318
:1003900003C023B301C020B381E090E002C0880F06
:1003A000991F6A95E2F72823822F089508958230D5
:1003B00029F1833020F4813009F06AC006C083300F
:1003C000B1F1843009F064C04BC0413061F42AB30C
:1003D00081E090E002C0880F991F6A95E2F780954E
:1003E00082238ABB08952AB381E090E002C0880F7F
:1003F000991F6A95E2F7282B2ABB0895413061F4D2
:1004000027B381E090E002C0880F991F6A95E2F758
:100410008095822387BB089527B381E090E002C0D6
:10042000880F991F6A95E2F7282B27BB0895413062
:1004300061F424B381E090E002C0880F991F6A95AF
:10044000E2F78095822384BB089524B381E090E095
:1004500002C0880F991F6A95E2F7282B24BB0895E4
:10046000413061F421B381E090E002C0880F991F10
:100470006A95E2F78095822381BB089521B381E0DC
:1004800090E002C0880F991F6A95E2F7282B21BBE4
:100490000895662311F0DC9A01C0DC98DD98A49AD7
:1004A000A59AA69AA79AAF98AE98AD98AC9887FDF2
:1004B000AF9A86FDAE9A85FDAD9A84FDAC9ADE9A20
:1004C00000C0DE98AF98AE98AD98AC9883FDAF9A17
:1004D00082FDAE9A81FDAD9A80FDAC9ADE9A00C095
:1004E000DE98AC9AAD9AAE9AAF9A089580E097E202
:1004F0000197F1F784E090E00197F1F7DC98DD9A3D
:10050000A498A598A698A798DE9A00C09C9B02C0C4
:1005100080E101C080E09D9980629E9980649F99EE
:100520008068DE9800C0DE9A00C09C9981609D9929
:1005300082609E9984609F998860DE9808951F93D9
:10054000182F0E947602812F60E00E9449021F91BD
:1005500008951F93182F0E947602812F61E00E9458
:1005600049021F910895662311F4805801C08054F8
:100570000E949F0208950E94760290E0089581E013
:100580000E949F02089582E00E949F0208951F9397
:10059000182F0E9476021A3049F4803410F080E05F
:1005A00001C080E480580E949F0204C0812F61E056
:1005B0000E9449021F910895CF93DF93EC0102C07E
:1005C0000E94C70289918823D9F7DF91CF910895BE
:1005D000CF93DF93EC0102C00E94C702FE01219677
:1005E00084918823C9F7DF91CF910895CF93DF934A
:1005F000EC0102C00E94C702FE012196849188236B
:10060000C9F7DF91CF910895D49AD59AD69AA49A32
:10061000A59AA69AA79A80E09DE70197F1F7AD9A6F
:10062000AC9ADE9A00C0DE9880E097E20197F1F77D
:10063000DE9A00C0DE9880E890E0FC013197F1F787
:10064000DE9A00C0DE98FC013197F1F7AC98DE9A93
:1006500000C0DE980197F1F788E20E949F0288E0CF
:100660000E949F020E94BF0286E00E949F028CE0CF
:100670000E949F0208950F931F93DF93CF93CDB7EE
:10068000DEB727970FB6F894DEBF0FBECDBF8E0141
:100690000F5F1F4FA8012AE030E00E942E0EC80114
:1006A0000E94DC0227960FB6F894DEBF0FBECDBFC6
:1006B000CF91DF911F910F9108950F931F93DF93B7
:1006C000CF93CDB7DEB727970FB6F894DEBF0FBE36
:1006D000CDBF8E010F5F1F4FA8012AE030E00E94BE
:1006E0002E0EC8010E94E60027960FB6F894DEBFD2
:1006F0000FBECDBFCF91DF911F910F910895DF9273
:10070000EF92FF920F931F93082F10E020E5D22E57
:1007100090EFE92E8AE0F82E6091DB018091DA01FA
:1007200090E070E040E050E00E9451098D2D8A95E4
:10073000F1F78091DA016091DB0100FF05C090E0E4
:1007400070E041E050E004C090E070E040E050E034
:100750000E9451098E2D8A95F1F76091DB018091FD
:10076000DA0190E070E041E050E00E9451098F2DE5
:100770008A95F1F71F5F183011F00695CDCF1F91C4
:100780000F91FF90EF90DF900895BF92CF92DF928C
:10079000EF92FF920F931F93CF93DF931091DB01A2
:1007A0008091DA01C82FD0E0612F40E00E94D7018C
:1007B00081E090E002C0880F991F1A95E2F7082F98
:1007C0000095FF2410E060E1B62E55E3C52E40EF02
:1007D000D42E3AE1E32E6091DB018091DA0190E0C2
:1007E00070E040E050E00E94510916958B2D8A95EB
:1007F000F1F76091DB018091DA0190E070E041E077
:1008000050E00E945109C130D10521F48AB3802300
:100810008ABB14C0C230D10521F487B3802387BBC3
:100820000DC0C330D10521F484B3802384BB06C03E
:10083000C430D10519F481B3802381BB8C2D8A95F6
:10084000F1F78091DA016091DB010E94B901811119
:1008500010688091DA016091DB0140E00E94D701CD
:100860006091DB018091DA0190E070E041E050E0BE
:100870000E9451098D2D8A95F1F78E2D8A95F1F7F9
:10088000F39488E0F81609F0A6CF812FDF91CF917D
:100890001F910F91FF90EF90DF90CF90BF90089540
:1008A0008091DA016091DB0140E00E94D701609104
:1008B000DB018091DA0190E070E040E050E00E94BE
:1008C000510980E699E00197F1F76091DB01809191
:1008D000DA0190E070E041E050E00E94510988ECBC
:1008E00090E00197F1F78091DA016091DB0141E03E
:1008F0000E94D7018091DA016091DB010E94B90169
:100900008823C1F780EC93E00197F1F78091DA0139
:100910006091DB0140E00E94D7016091DB01809192
:10092000DA0190E070E041E050E00E94510980EB74
:1009300094E00197F1F708950F931F930E945004DC
:100940008CEC0E947F0384E40E947F030E94500489
:100950008CEC0E947F038EEB0E947F030E94C503F4
:10096000082F0E94C503382F20E010E0202B312BE8
:1009700040E050E0CA01B9010E94280C20E030E0BC
:1009800040E85DE30E948E0C0E94FC0BDC01CB0171
:100990001F910F9108958093DA016093DB010E940B
:1009A0005004089582E090E061E070E041E050E0A2
:1009B0000E94510982E090E064E070E041E050E084
:1009C0000E94510982E090E060E070E041E050E078
:1009D0000E945109089582E090E061E070E041E0FA
:1009E00050E00E94510982E090E064E070E040E055
:1009F00050E00E94510982E090E060E070E041E048
:100A000050E00E945109089582E090E061E070E0BA
:100A100040E050E00E94510982E090E064E070E024
:100A200041E050E00E94510982E090E060E070E017
:100A300041E050E00E945109089582E090E061E0B9
:100A400070E041E050E00E94510982E090E064E0F3
:100A500070E041E050E00E94510982E090E060E0E7
:100A600070E040E050E00E945109089582E090E07B
:100A700060E070E041E050E00E94510982E090E0C7
:100A800061E070E041E050E00E94510982E090E0B6
:100A900064E070E041E050E00E94510982E090E0A3
:100AA00065E070E041E050E00E945109089582E065
:100AB00090E060E070E040E050E00E94510982E088
:100AC00090E061E070E040E050E00E94510982E077
:100AD00090E064E070E040E050E00E94510982E064
:100AE00090E065E070E040E050E00E945109089518
:100AF0000F931F93DF93CF93CDB7DEB7C456D0408B
:100B00000FB6F894DEBF0FBECDBF2DB73EB72A504B
:100B100030400FB6F8943EBF0FBE2DBFEDB7FEB705
:100B200031968E010B5E1F4FADB7BEB712961C9368
:100B30000E93119720E630E0338322832CE830E0D7
:100B40003583248397838683718760870E946A0E2A
:100B50002DB73EB7265F3F4F0FB6F8943EBF0FBE8E
:100B60002DBFC8018E010F5F1F4FB8010E94630B9C
:100B7000C80163E970E00E94EB0A9C01009711F044
:100B800021E030E0C901CC59DF4F0FB6F894DEBF49
:100B90000FBECDBFCF91DF911F910F9108950F939D
:100BA0001F93DF93CF93CDB7DEB7C456D0400FB6B7
:100BB000F894DEBF0FBECDBF2DB73EB72A503040F0
:100BC0000FB6F8943EBF0FBE2DBFEDB7FEB73196FE
:100BD0008E010B5E1F4FADB7BEB712961C930E93DE
:100BE00011972DE930E0338322832CE830E0358300
:100BF000248397838683718760870E946A0E2DB74E
:100C00003EB7265F3F4F0FB6F8943EBF0FBE2DBFD5
:100C1000C8018E010F5F1F4FB8010E94630BC8010E
:100C200063E970E00E94EB0A9C01009711F021E05B
:100C300030E0C901CC59DF4F0FB6F894DEBF0FBECC
:100C4000CDBFCF91DF911F910F9108950F931F9307
:100C5000DF93CF93CDB7DEB7C456D0400FB6F8942C
:100C6000DEBF0FBECDBF2DB73EB72C5030400FB604
:100C7000F8943EBF0FBE2DBFEDB7FEB731968E0183
:100C80000B5E1F4FADB7BEB712961C930E93119714
:100C900029EC30E0338322832CE830E03583248351
:100CA0009783868371876087538742870E946A0E85
:100CB0002DB73EB7245F3F4F0FB6F8943EBF0FBE2F
:100CC0002DBFC8018E010F5F1F4FB8010E94630B3B
:100CD000C80163E970E00E94EB0A9C01009711F0E3
:100CE00021E030E0C901CC59DF4F0FB6F894DEBFE8
:100CF0000FBECDBFCF91DF911F910F9108958F92BD
:100D00009F92AF92BF92CF92DF92EF92FF920F939A
:100D10001F93DF93CF93CDB7DEB7CE56D0400FB63B
:100D2000F894DEBF0FBECDBF6C015B014A0100D05D
:100D300000D000D0EDB7FEB731968E01015E1F4F97
:100D4000ADB7BEB712961C930E93119782E091E057
:100D5000938382838CE890E0958384830E946A0E5B
:100D6000EDB7FEB736960FB6F894FEBF0FBEEDBFD7
:100D70007BE0E72EF12CEC0EFD1EC801B7010E94AE
:100D8000630BC70160E371E08E010F5F1F4FA80185
:100D90000E94B80AC8010E949C0DD6018D939C93B5
:100DA000C70162E371E0A8010E94B80AC8010E946D
:100DB0009C0DF50191838083C70164E371E0A80174
:100DC0000E94B80AC8010E949C0DD4018D939C9387
:100DD00081E090E0C259DF4F0FB6F894DEBF0FBE3E
:100DE000CDBFCF91DF911F910F91FF90EF90DF90DA
:100DF000CF90BF90AF909F908F900895CF92DF9249
:100E0000EF92FF920F931F93DF93CF93CDB7DEB78F
:100E1000CE56D0400FB6F894DEBF0FBECDBF6C01EA
:100E20008DB79EB708970FB6F8949EBF0FBE8DBFC3
:100E3000EDB7FEB73196AFE1EA2EF12CEC0EFD1EB8
:100E4000ADB7BEB71296FC92EE92119786E391E091
:100E5000938382838CE890E095838483D782C682D3
:100E60000E946A0E8DB79EB708960FB6F8949EBF83
:100E70000FBE8DBF8E01055F1F4FC701B8010E94D5
:100E8000630BC801B6018E010F5F1F4FA8010E94BE
:100E9000B80AC8010E949C0DC259DF4F0FB6F894E2
:100EA000DEBF0FBECDBFCF91DF911F910F91FF909D
:100EB000EF90DF90CF900895AF92BF92CF92DF92E4
:100EC000EF92FF920F931F93DF93CF93CDB7DEB7CF
:100ED000CE56D0400FB6F894DEBF0FBECDBF6C012A
:100EE0005B018DB79EB708970FB6F8949EBF0FBEF3
:100EF0008DBFEDB7FEB73196BFE1EB2EF12CEC0EB6
:100F0000FD1EADB7BEB71296FC92EE92119786E326
:100F100091E0938382838CE890E095838483D782E9
:100F2000C6820E946A0E8DB79EB708960FB6F894D7
:100F30009EBF0FBE8DBF8E01055F1F4FC701B80159
:100F40000E94630BC801B6018E010F5F1F4FA801FD
:100F50000E94B80AC501B8010E94C50DC259DF4FF1
:100F60000FB6F894DEBF0FBECDBFCF91DF911F91BA
:100F70000F91FF90EF90DF90CF90BF90AF900895CA
:100F80000F931F93DF93CF93CDB7DEB727970FB69D
:100F9000F894DEBF0FBECDBF8E010F5F1F4FB801AB
:100FA0004AE050E00E940D0EC8010E94E60027961C
:100FB0000FB6F894DEBF0FBECDBFCF91DF911F916A
:100FC0000F9108950E94040381E691E00E94DC02E3
:100FD00080E197E220E931E0F9013197F1F70197DB
:100FE000D9F780E895E20E94550082E090E00E94E7
:100FF0008E0A0E94E30B08950F931F93CF93DF9304
:101000000E94E20783E791E068E771E00E94A70B86
:1010100081E891E00E94DC0280E197E220E931E082
:10102000F9013197F1F70197D9F781E08093DA015F
:101030001092DB010E9450048BE891E06DED71E0AD
:101040000E945C070E94BF028DED91E00E94DC02CD
:101050008DED91E06EE871E00E94EB0A892B09F4B6
:101060004FC08BE891E06DED71E00E945C070E943B
:10107000BF028DED91E00E94DC028DED91E065E90B
:1010800071E00E94EB0A892B91F58DED91E06AE900
:1010900071E00E94EB0A892B41F48DED91E06FE93C
:1010A00071E00E94EB0A892B11F00E941D058DED65
:1010B00091E066EA71E00E94EB0A892B11F00E9430
:1010C00004058DED91E06DEA71E00E94EB0A892B39
:1010D00011F00E94EB048DED91E062EB71E00E9453
:1010E000EB0A892B09F4BDCF0E94D204BACF83E763
:1010F00091E068E771E00E94A70B0E94D2045EC0F5
:101100008DED91E065E971E00E94EB0A892B09F40D
:1011100093CF00E911E08BE891E06DED71E00E9462
:101120005C070E94BF028DED91E00E94DC028DED14
:1011300091E06EE871E00E94EB0A892BB9F50E94FC
:10114000BF020E949C04C82FD0E08AEB91E00E946D
:10115000DC0285E060E00E94B302BE01882777FDD3
:101160008095982F0E943B0380EC91E00E94DC0266
:1011700080ED97E0F8013197F1F70197D9F7CB317E
:10118000D10514F40E94D204CB31D10519F40E9488
:101190001D05C1CFCD31D10519F40E940405BBCF87
:1011A0006E970CF4B8CF0E94EB04B5CF0E94D20426
:1011B00083E791E068E771E00E94A70B80E090E090
:1011C000DF91CF911F910F9108958230F9F0833014
:1011D00018F4813031F407C0833059F1843009F4B8
:1011E00042C080E00895693019F41ABA89B30895AD
:1011F0008AB321E030E0062E02C0220F331F0A948A
:10120000E2F7209528232ABB89B325C0693019F459
:1012100017BA86B3089587B321E030E0062E02C0E6
:10122000220F331F0A94E2F72095282327BB86B3A9
:1012300012C0693019F414BA83B3089584B321E05D
:1012400030E0062E02C0220F331F0A94E2F72095E9
:10125000282324BB83B390E002C0959587956A95B7
:10126000E2F781700895693019F411BA80B30895D6
:1012700031B381E090E0062E02C0880F991F0A94D6
:10128000E2F7282F2095232321BB22B3822B82BB98
:1012900080B390E002C0959587956A95E2F78170DA
:1012A0000895823009F441C0833020F4813009F080
:1012B000D7C007C0833009F46CC0843009F0D0C0B7
:1012C0009CC06B3521F48FEF8ABB4BBB0895442340
:1012D00021F0413009F0C4C014C0693021F48FEF0F
:1012E0008ABB1BBA08958AB321E030E002C0220F06
:1012F000331F6A95E2F7822B8ABB8BB32095282394
:1013000012C0693021F48FEF8ABB8BBB08958AB37A
:1013100021E030E002C0220F331F6A95E2F7822BF2
:101320008ABB8BB3282B2BBB08956B3521F48FEF31
:1013300087BB48BB0895442321F0413009F090C099
:1013400014C0693021F48FEF87BB18BA089587B3B2
:1013500021E030E002C0220F331F6A95E2F7822BB2
:1013600087BB88B32095282312C0693021F48FEF02
:1013700087BB88BB089587B321E030E002C0220F0D
:10138000331F6A95E2F7822B87BB88B3282B28BBD3
:1013900008956B3521F48FEF84BB45BB089544233A
:1013A00021F0413009F05CC014C0693021F48FEFA6
:1013B00084BB15BA089584B321E030E002C0220F47
:1013C000331F6A95E2F7822B84BB85B320952823CF
:1013D00012C0693021F48FEF84BB85BB089584B3BC
:1013E00021E030E002C0220F331F6A95E2F7822B22
:1013F00084BB85B3282B25BB08956B3521F48FEF73
:1014000081BB42BB0895442319F0413049F515C012
:10141000693021F48FEF81BB12BA089581B321E0C6
:1014200030E002C0220F331F6A95E2F7822B81BBA6
:1014300082B32095282322BB0895693021F48FEFD1
:1014400081BB82BB089581B321E030E002C0220F4E
:10145000331F6A95E2F7822B81BB82B3282B22BB14
:101460000895833019F1843009F43CC0823009F0CA
:1014700054C0442321F0413009F04FC00CC027B3C1
:1014800081E090E002C0880F991F6A95E2F780958D
:10149000822387BB089527B381E090E002C0880FC4
:1014A000991F6A95E2F7282B27BB0895442319F06A
:1014B000413099F50CC024B381E090E002C0880F60
:1014C000991F6A95E2F78095822384BB089524B31F
:1014D00081E090E002C0880F991F6A95E2F7282BFF
:1014E00024BB0895442319F04130B9F40CC021B352
:1014F00081E090E002C0880F991F6A95E2F780951D
:10150000822381BB089521B381E090E002C0880F5F
:10151000991F6A95E2F7282B21BB0895882321F4AF
:1015200081E067E040E004C0813041F467E041E0E1
:101530000E94510983E062E040E00AC0823059F421
:1015400081E067E040E00E94510983E062E041E011
:101550000E9451090895833051F481E067E041E031
:101560000E94510983E062E041E00E945109089520
:10157000EF92FF920F931F93CF93DF93EA010E94A4
:10158000F30D009719F420E030E01DC0019662ECE5
:1015900071E00E94F30D7C0183E090E0E80EF91EFB
:1015A000C70162E270E00E94BA0D8C010E191F099A
:1015B000CE01B701A8010E94E40D0C0F1D1FF80118
:1015C000108221E030E0C901DF91CF911F910F918E
:1015D000FF90EF900895DB010D900020E9F711973F
:1015E000A61BB70B4A2F50E00E94CC0D20E030E044
:1015F000892B11F421E030E0C90108950E949C0D6F
:101600000895D29ADA98089581E090E00895D29AE8
:10161000DA9888E893E120E931E0F9013197F1F7B0
:101620000197D9F7DA9A80E49CE920E931E0F901E1
:101630003197F1F70197D9F70895AF92BF92CF9202
:10164000DF92FF920F931F93CF93DF936C01FF24E0
:10165000C0E0D0E080EAA82E8FE0B82E04C021962A
:10166000C5010197F1F70E941601892B19F4CC15D9
:10167000DD05A8F3CC15DD05C9F00F2D10E00E94A3
:10168000BD00F801E55CFC4F80838A3069F482E09C
:101690008F1550F40E943801980121503040F90113
:1016A000E55CFC4F108204C0F394DDCF20E030E015
:1016B000C901DF91CF911F910F91FF90DF90CF90E3
:1016C000BF90AF900895EF92FF920F931F938C01FC
:1016D0007B010E94380185EC91E00E94E60087E5DD
:1016E00090E00E94F00082E390E00E941D0B0E94B7
:1016F000380110923B03C8010E94E60084E590E0A7
:101700000E94F00088EE93E00E941D0BC7016BE37E
:1017100073E00E94C50D0E9438018091D80190911C
:10172000D90101969093D9018093D80162E370E0CA
:101730000E94380D892B21F48AEC91E00E94E6008A
:1017400088EC90E01F910F91FF90EF900895EF9239
:10175000FF920F931F938C017B0183E293E0B8010A
:101760000E94C50D8FE293E0B7010E94C50D0E9453
:10177000380180ED91E00E94E60080E690E00E9452
:10178000F00082E390E00E941D0BC8010E94E60079
:101790008DE590E00E94F00082E390E00E941D0B36
:1017A000C7010E94E6008AE590E00E94F00082E313
:1017B00090E00E941D0B20E030E0C9011F910F91C5
:1017C000FF90EF9008950E94070B83E690E00E943F
:1017D000F00084EF91E020E931E0F9013197F1F771
:1017E0000197D9F788EC90E00E941D0B0E94380108
:1017F00008950E94E30B089570D088F09F5790F0F1
:10180000B92F9927B751A0F0D1F0660F771F881F25
:10181000991F1AF0BA95C9F712C0B13081F077D08C
:10182000B1E0089574C0672F782F8827B85F39F02A
:10183000B93FCCF3869577956795B395D9F73EF484
:1018400090958095709561957F4F8F4F9F4F08952C
:10185000E89409C097FB3EF490958095709561954A
:101860007F4F8F4F9F4F9923A9F0F92F96E9BB2700
:101870009395F695879577956795B795F111F8CF7C
:10188000FAF4BB0F11F460FF1BC06F5F7F4F8F4FE7
:101890009F4F16C0882311F096E911C0772321F0DD
:1018A0009EE8872F762F05C0662371F096E8862F75
:1018B00070E060E02AF09A95660F771F881FDAF7CC
:1018C000880F9695879597F9089557FD9058440F7E
:1018D000551F59F05F3F71F04795880F97FB991F8F
:1018E00061F09F3F79F0879508951216130614064C
:1018F000551FF2CF4695F1DF08C0161617061806D9
:10190000991FF1CF86957105610508940895E894B3
:10191000BB2766277727CB0197F908950BD078C0AE
:1019200069D028F06ED018F0952309F05AC05FC036
:101930001124EECFCADFA0F3959FD1F3950F50E0AD
:10194000551F629FF001729FBB27F00DB11D639F71
:10195000AA27F00DB11DAA1F649F6627B00DA11D17
:10196000661F829F2227B00DA11D621F739FB00DBD
:10197000A11D621F839FA00D611D221F749F33272D
:10198000A00D611D231F849F600D211D822F762FC6
:101990006A2F11249F5750408AF0E1F088234AF0C3
:1019A000EE0FFF1FBB1F661F771F881F915050400F
:1019B000A9F79E3F510570F014C0AACF5F3FECF32A
:1019C000983EDCF3869577956795B795F795E795FB
:1019D0009F5FC1F7FE2B880F911D9695879597F90C
:1019E000089597F99F6780E870E060E008959FEFA1
:1019F00080EC089500240A941616170618060906A6
:101A0000089500240A941216130614060506089574
:101A1000092E0394000C11F4882352F0BB0F40F4FC
:101A2000BF2B11F460FF04C06F5F7F4F8F4F9F4F3C
:101A30000895629FD001739FF001829FE00DF11D18
:101A4000649FE00DF11D929FF00D839FF00D749F38
:101A5000F00D659FF00D9927729FB00DE11DF91FE4
:101A6000639FB00DE11DF91FBD01CF011124089541
:101A700097FB092E07260AD077FD04D049D006D05F
:101A800000201AF4709561957F4F0895F6F79095B0
:101A900081959F4F0895A1E21A2EAA1BBB1BFD0141
:101AA0000DC0AA1FBB1FEE1FFF1FA217B307E4073D
:101AB000F50720F0A21BB30BE40BF50B661F771F95
:101AC000881F991F1A9469F7609570958095909575
:101AD0009B01AC01BD01CF01089597FB092E05269E
:101AE0000ED057FD04D0D7DF0AD0001C38F4509533
:101AF0004095309521953F4F4F4F5F4F0895F6F732
:101B000090958095709561957F4F8F4F9F4F089569
:101B1000AA1BBB1B51E107C0AA1FBB1FA617B70713
:101B200010F0A61BB70B881F991F5A95A9F780952F
:101B30009095BC01CD010895FC0188279927E89470
:101B400021912032E9F3293010F02E30C8F32B32E6
:101B500041F02D3239F4689404C00E94620E820F65
:101B6000911D219120532A30C0F31EF49095819548
:101B70009F4F0895FC018191861721F08823D9F7A2
:101B8000992708953197CF010895FB01DC01019059
:101B90000D920020E1F70895FB01DC014150504017
:101BA00088F08D9181341CF08B350CF4805E61914E
:101BB00061341CF06B350CF4605E861B611171F3AF
:101BC000990B0895881BFCCFFB01DC01415050406C
:101BD00048F001900D920020C9F701C01D924150BC
:101BE0005040E0F70895FB0151915523A9F0BF0142
:101BF000DC014D9145174111E1F759F4CD010190F8
:101C0000002049F04D9140154111C9F3FB014111EC
:101C1000EFCF81E090E001970895FB019F01E894E8
:101C20004230C4F04532B4F44A3029F497FB1EF434
:101C3000909581959F4F642F77270E94880D805D36
:101C40008A330CF0895D8193CB010097A1F716F4DC
:101C50005DE251931082C9010C948110FA01CF9377
:101C6000FF93EF93223044F1253234F5C22FE894EC
:101C7000CA3049F497FB3EF4909580957095619534
:101C80007F4F8F4F9F4F2C2F332744275527FF938C
:101C9000EF930E944B0DEF91FF91605D6A330CF062
:101CA000695D6193B901CA01605070408040904005
:101CB00051F716F4CDE2C19310828F919F91CF918D
:101CC0000C9481107AE0979F902D879F802D910D25
:101CD00011240895AEE0B0E0E0E7FEE00C94291195
:101CE0000D891E8986E08C831A8309838FEF9FE715
:101CF0009E838D839E01275E3F4FCE0101966F89A3
:101D0000788DA9010E948E0E2F813885020F131F36
:101D1000F80110822E96E4E00C944511ABE0B0E09F
:101D2000E4E9FEE00C941B113C012B015A01FC017B
:101D300017821682838181FD03C06FEF7FEFC6C1DA
:101D40009AE0892E1E010894211C311CF301238185
:101D5000F20123FD859123FF81912F01882309F44E
:101D6000B2C1853239F423FD859123FF81912F0182
:101D7000853229F490E0B3010E949110E7CF982FAB
:101D8000FF24EE249924FFE1FF15D0F09B3269F087
:101D90009C3228F4903259F0933291F40EC09D3267
:101DA00049F0903369F441E024C052E0F52A84E020
:101DB000F82A28C098E0F92A25C0E0E1FE2A22C0CE
:101DC000F7FC29C0892F80538A3070F4F6FE05C0D5
:101DD000989C902C1124980E15C0E89CE02C11249E
:101DE000E80EF0E2FF2A0EC09E3229F4F6FC6BC129
:101DF00040E4F42A07C09C3619F450E8F52A02C0E2
:101E0000983649F4F20123FD959123FF91912F011A
:101E1000992309F0B8CF892F8554833018F0805268
:101E2000833038F444E050E0A40EB51E5FE35983DC
:101E30000FC0933631F0933779F0933509F056C0DF
:101E400020C0F5018081898342E050E0A40EB51ED8
:101E5000610101E010E012C0F501C080D180F6FC04
:101E600003C06FEF7FEF02C0692D70E042E050E0E9
:101E7000A40EB51EC6010E9476108C015FE7F52204
:101E800014C0F501C080D180F6FC03C06FEF7FEF76
:101E900002C0692D70E042E050E0A40EB51EC601FC
:101EA0000E946B108C0150E8F52AF3FE07C01AC09F
:101EB00080E290E0B3010E949110EA948E2D90E0B0
:101EC00008171907A8F30EC0F601F7FC8591F7FE75
:101ED00081916F0190E0B3010E949110E110EA94AA
:101EE000015010400115110579F7EAC0943611F040
:101EF000993669F5F7FE08C0F501208131814281EC
:101F0000538184E090E00AC0F501808191819C01B9
:101F1000442737FD4095542F82E090E0A80EB91E6B
:101F20009FE6F92257FF09C05095409530952195BD
:101F30003F4F4F4F5F4FE0E8FE2ACA01B901A101B0
:101F40002AE030E00E94BD10D82ED21840C095374C
:101F500029F41F2D1F7E2AE030E01DC01F2D197FA0
:101F60009F3661F0903720F4983509F0ACC00FC06F
:101F7000903739F0983709F0A6C004C028E030E067
:101F80000AC0106114FD146020E130E004C014FDAB
:101F9000166020E132E017FF08C0F5016081718111
:101FA0008281938144E050E008C0F50180819181F5
:101FB000BC0180E090E042E050E0A40EB51EA1011B
:101FC0000E94BD10D82ED2188FE7F82EF122F6FE0F
:101FD0000BC05EEFF522D91438F4F4FE07C0F2FC12
:101FE00005C08FEEF82202C01D2D01C0192DF4FE90
:101FF0000DC0FE01ED0DF11D8081803319F499EEC5
:10200000F92208C01F5FF2FE05C003C08F2D86783D
:1020100009F01F5F0F2DF3FC14C0F0FE0FC01E155A
:1020200010F09D2C0BC09D2C9E0C911A1E2D06C0ED
:1020300080E290E0B3010E9491101F5F1E15C0F373
:1020400004C01E1510F4E11A01C0EE2404FF0FC0F5
:1020500080E390E0B3010E94911002FF1DC001FDDA
:1020600003C088E790E00EC088E590E00BC0802FA9
:10207000867891F001FF02C08BE201C080E2F7FC9C
:102080008DE290E0B3010E94911006C080E390E0E1
:10209000B3010E9491109A94D914C0F3DA94F1011B
:1020A000ED0DF11D808190E0B3010E949110DD20C3
:1020B000A9F706C080E290E0B3010E949110EA9473
:1020C000EE20C1F743CEF30166817781CB012B96D9
:1020D000E2E10C943711FC01059061507040011051
:1020E000D8F7809590958E0F9F1F0895FC01615041
:1020F000704001900110D8F7809590958E0F9F1F2A
:102100000895DC01FC01672F71917723E1F7329785
:1021100004C07C916D9370836291AE17BF07C8F3C2
:1021200008950F931F93CF93DF938C01EB018B8165
:1021300081FF1BC082FF0DC02E813F818C819D815C
:102140002817390764F4E881F9810193F983E8835A
:1021500006C0E885F985802F0995892B31F48E8199
:102160009F8101969F838E8302C00FEF1FEFC801EE
:10217000DF91CF911F910F910895FA01AA2728307E
:1021800051F1203181F1E8946F936E7F6E5F7F4F44
:102190008F4F9F4FAF4FB1E03ED0B4E03CD0670FC0
:1021A000781F891F9A1FA11D680F791F8A1F911D13
:1021B000A11D6A0F711D811D911DA11D20D009F463
:1021C00068943F912AE0269F11243019305D3193A5
:1021D000DEF6CF010895462F4770405D4193B3E08E
:1021E0000FD0C9F7F6CF462F4F70405D4A3318F035
:1021F000495D31FD4052419302D0A9F7EACFB4E0E6
:10220000A6959795879577956795BA95C9F700979D
:102210006105710508959B01AC010A2E069457953E
:10222000479537952795BA95C9F7620F731F841F95
:10223000951FA01D08952F923F924F925F926F922B
:102240007F928F929F92AF92BF92CF92DF92EF9246
:10225000FF920F931F93CF93DF93CDB7DEB7CA1BC7
:10226000DB0B0FB6F894DEBF0FBECDBF09942A88F2
:10227000398848885F846E847D848C849B84AA849A
:10228000B984C884DF80EE80FD800C811B81AA8127
:10229000B981CE0FD11D0FB6F894DEBF0FBECDBFF2
:0822A000ED010895F894FFCF51
:1022A800687474703A2F2F6170692E636C6F626F57
:1022B80075732E636F6D2F25732F646174612F758D
:1022C80070646174653F25733D257300733333393A
:1022D8003135007B737563636573737D006874744F
:1022E800703A2F2F6170692E636C6F626F75732E51
:1022F800636F6D2F25732F646174612F757064612E
:1023080074653F25733D256400687474703A2F2FF7
:102318006170692E636C6F626F75732E636F6D2FBA
:1023280025732F747261636B2F3F6C61743D257345
:10233800266C6F6E673D25732673706565643D2551
:102348007300687474703A2F2F6170692E636C6F14
:10235800626F75732E636F6D2F25732F64617461BF
:102368002F72657472696576653F7226672662000A
:10237800720067006200687474703A2F2F61706988
:102388002E636C6F626F75732E636F6D2F25732FBD
:10239800646174612F72657472696576653F25732F
:1023A80000476F6F676C655F417373697374616E23
:1023B800636500617375730061737573313233340B
:1023C800007769666920636E7464007672006D61D7
:1023D8006E75616C006175746F00736C6F77006661
:1023E800616E5F6F6E006D656469756D006661731F
:1023F800740066616E5F6F66660074656D703D009F
:102408002A00223A0068747470006F74610D0A0023
:0624180077636F6E000007
:00000001FF
